{
  "contractName": "SimpleStorage",
  "abi": [
    {
      "inputs": [
        {
          "internalType": "uint256",
          "name": "num",
          "type": "uint256"
        }
      ],
      "name": "setNumber",
      "outputs": [],
      "stateMutability": "nonpayable",
      "type": "function"
    },
    {
      "inputs": [],
      "name": "getNumber",
      "outputs": [
        {
          "internalType": "uint256",
          "name": "",
          "type": "uint256"
        }
      ],
      "stateMutability": "view",
      "type": "function",
      "constant": true
    }
  ],
  "bytecode": "0x608060405234801561001057600080fd5b5061012f806100206000396000f3fe6080604052348015600f57600080fd5b506004361060325760003560e01c80633fb5c1cb146037578063f2c9ecd814604f575b600080fd5b604d600480360381019060499190608f565b6069565b005b60556073565b6040516060919060c2565b60405180910390f35b8060008190555050565b60008054905090565b60008135905060898160e5565b92915050565b60006020828403121560a057600080fd5b600060ac84828501607c565b91505092915050565b60bc8160db565b82525050565b600060208201905060d5600083018460b5565b92915050565b6000819050919050565b60ec8160db565b811460f657600080fd5b5056fea2646970667358221220ee446cb98873b5b070f6078cfa3fb99c74eaf577310c9e8eb8b60f1f2eecbf2564736f6c63430008000033",
  "immutableReferences": {},
  "source": "// SPDX-License-Identifier: MIT\npragma solidity ^0.8.0;\n\n/**\n * @title SimpleStorage\n * @author Danushka Fonseka\n * @notice This contract demonstrates basic functionality of storing and retrieving a number.\n * It includes detailed comments to help those unfamiliar with Solidity understand each part.\n */\ncontract SimpleStorage {\n    // @dev This is a private variable that stores a single unsigned integer.\n    // It's only accessible within this contract.\n    uint private storedNumber;\n\n    /**\n     * @dev Stores a number in the contract's storage.\n     * @param num The number to store (must be 0 or higher)\n     */\n    function setNumber(uint num) public {\n        // The \"storedNumber\" variable is updated to the provided value\n        storedNumber = num;\n    }\n\n    /**\n     * @dev Retrieves the currently stored number.\n     * @return The stored number as an unsigned integer\n     */\n    function getNumber() public view returns (uint) {\n        // \"view\" means this function doesn't modify contract state\n        return storedNumber;\n    }\n\n    // ======== COMMENTED EXPLANATION OF KEY CONCEPTS ========\n\n    // **Contract Structure**\n    // - \"contract\" keyword defines a new smart contract\n    // - All functions and variables are contained within curly braces {}\n\n    // **Variables**\n    // - \"uint\" is an unsigned integer (can't be negative)\n    // - \"private\" means only this contract can access this variable directly\n\n    // **Functions**\n    // - \"public\" automatically creates a getter function for state variables\n    // - \"view\" specifies this function doesn't modify contract state\n    // - \"returns (uint)\" defines the data type returned by the function\n\n    // **Special Comments**\n    // - \"@notice\" provides a human-readable description for contract users\n    // - \"@dev\" explains technical details for developers\n    // - \"@param\" describes input parameters\n    // - \"@return\" explains output values\n\n    // **Deployment & Interaction**\n    // 1. Compile with solc (Solidity compiler)\n    // 2. Deploy to Ethereum network using tools like Remix or Hardhat\n    // 3. Interact via Ethereum wallet or web3 library\n}\n",
  "sourcePath": "/home/secutoken/contract/contracts/SimpleStorage.sol",
  "compiler": {
    "name": "solc",
    "version": "0.8.0+commit.c7dfd78e.Emscripten.clang"
  },
  "schemaVersion": "3.4.16",
  "updatedAt": "2025-03-14T04:51:35.042Z",
  "networkType": "ethereum",
  "devdoc": {
    "author": "Danushka Fonseka",
    "kind": "dev",
    "methods": {
      "getNumber()": {
        "details": "Retrieves the currently stored number.",
        "returns": {
          "_0": "The stored number as an unsigned integer"
        }
      },
      "setNumber(uint256)": {
        "details": "Stores a number in the contract's storage.",
        "params": {
          "num": "The number to store (must be 0 or higher)"
        }
      }
    },
    "title": "SimpleStorage",
    "version": 1
  },
  "userdoc": {
    "kind": "user",
    "methods": {},
    "notice": "This contract demonstrates basic functionality of storing and retrieving a number. It includes detailed comments to help those unfamiliar with Solidity understand each part.",
    "version": 1
  }
}